:020000040800F2
:100000000028002025130008B5120008BB120008C4
:10001000C1120008C7120008CD120008000000003D
:10002000000000000000000000000000D3120008E3
:10003000DF12000800000000EB120008F7120008B1
:100040006D1300086D1300086D1300086D13000890
:100050006D1300086D1300086D1300086D13000880
:100060006D1300086D1300086D1300086D13000870
:100070006D1300086D1300086D1300086D13000860
:100080006D1300086D1300086D1300086D13000850
:100090006D1300086D1300086D1300086D13000840
:1000A0006D1300086D1300086D1300086D13000830
:1000B000051300086D130008000000006D13000810
:1000C0006D13000800000000000000006D13000820
:1000D000000000006D1300086D1300080000000010
:1000E0006D1300086D1300086D1300080000000078
:1000F0000000000000000000000000000000000000
:0C01000000000000000000005FF808F1A3
:10010C0010B5054C237833B9044B13B10448AFF345
:10011C0000800123237010BD54000020000000005B
:10012C009429000808B5034B1BB103490348AFF3EE
:10013C00008008BD00000000580000209429000831
:10014C0080B500AF002201210E4801F00CFC00220A
:10015C0004210C4801F007FC00220221094801F09F
:10016C0002FC00220821074801F0FDFB002220219F
:10017C00044801F0F8FB00221021024801F0F3FBC7
:10018C0000BF80BD0008014080B500AF01220121F5
:10019C00074801F0E8FB00220421054801F0E3FBCD
:1001AC0000220221024801F0DEFB00BF80BD00BF2F
:1001BC000008014080B500AF00220121074801F082
:1001CC00D2FB01220421054801F0CDFB00220221C3
:1001DC00024801F0C8FB00BF80BD00BF0008014011
:1001EC0080B500AF00220121074801F0BCFB0022C2
:1001FC000421054801F0B7FB01220221024801F05D
:10020C00B2FB00BF80BD00BF0008014080B500AF4D
:10021C0001220821074801F0A6FB002220210548F5
:10022C0001F0A1FB00221021024801F09CFB00BF51
:10023C0080BD00BF0008014080B500AF002208213E
:10024C00074801F090FB01222021054801F08BFBAF
:10025C0000221021024801F086FB00BF80BD00BFC8
:10026C000008014080B500AF00220821074801F0CA
:10027C007AFB00222021054801F075FB0122102198
:10028C00024801F070FB00BF80BD00BF00080140B8
:10029C0080B582B000AF78607B68002B0AD1002259
:1002AC003F21424801F05FFB012240213F4801F011
:1002BC005AFB77E07B68012B0AD1002206213B48D0
:1002CC0001F051FB01227921384801F04CFB69E027
:1002DC007B68022B0AD100225B21344801F043FBDE
:1002EC0001222421314801F03EFB5BE07B68032BAB
:1002FC000AD100224F212D4801F035FB012230217B
:10030C002A4801F030FB4DE07B68042B0AD1002217
:10031C006621264801F027FB01221921234801F010
:10032C0022FB3FE07B68052B0AD100226D211F4880
:10033C0001F019FB012212211C4801F014FB31E0E1
:10034C007B68062B0AD100227D21184801F00BFB9B
:10035C0001220221154801F006FB23E07B68072BE4
:10036C000AD100220721114801F0FDFA012278215F
:10037C000E4801F0F8FA15E07B68082B05D1002235
:10038C007F210A4801F0EFFA0CE07B68092B09D1B8
:10039C0000226F21054801F0E6FA012210210348E2
:1003AC0001F0E1FA00BF0837BD4680BD000C0140EA
:1003BC0080B582B000AF78607B68032B66D801A251
:1003CC0052F823F0E10300080F0400083D04000874
:1003DC006B04000800224021324801F0C4FA0122CB
:1003EC008021304801F0BFFA01224FF480712D4872
:1003FC0001F0B9FA01224FF400712A4801F0B3FA66
:10040C0045E001224021274801F0ADFA002280216D
:10041C00244801F0A8FA01224FF48071214801F020
:10042C00A2FA01224FF400711E4801F09CFA2EE052
:10043C00012240211B4801F096FA01228021194823
:10044C0001F091FA00224FF48071164801F08BFAFA
:10045C0001224FF40071134801F085FA17E00122D4
:10046C004021104801F07FFA012280210D4801F053
:10047C007AFA01224FF480710A4801F074FA0022D2
:10048C004FF40071074801F06EFA00E000BF064A15
:10049C007B6852F823301846FFF7FAFE00BF083786
:1004AC00BD4680BD000801407400002080B483B0BC
:1004BC0000AF786039607B68184A82FB0312921097
:1004CC00DB17D31A164A13607968144B83FB01238C
:1004DC009A10CB17D21A13469B0013445B00CA1A0E
:1004EC000F4B5A603B680D4A82FB03129210DB17CC
:1004FC00D31A0B4A93603968084B83FB01239A107B
:10050C00CB17D21A13469B0013445B00CA1A044B38
:10051C00DA6000BF0C37BD4680BC70476766666604
:10052C007400002080B500AF6F4B1B680C2B07D0FC
:10053C006D4B1B680D2B03D06B4B1B680E2B13D113
:10054C006A4B1B686A4A82FB03129211DB17D31A9F
:10055C00684A1360684B1B68654A82FB0312921150
:10056C00DB17D31A654A13605F4B1B680C2B00F02A
:10057C00A0805D4B1B680D2B00F09B805A4B1B68B9
:10058C000E2B00F096805B4B1B68002B39DC5C4B10
:10059C001B68002B0AD1554B1B68554A82FB031272
:1005AC009211DB17D31A534A13601CE0544B1B688F
:1005BC00012B0AD1504B1B684D4A82FB031292113E
:1005CC00DB17D31A4B4A13600DE04D4B1B68022B03
:1005DC0009D14C4B1B68464A82FB03129211DB1764
:1005EC00D31A444A1360464B1B68591C464B83FB79
:1005FC000132CB17D21A13465B001344CA1A404B74
:10060C001A603E4B1B68002B39DC404B1B68002BDF
:10061C000AD1394B1B68364A82FB03129211DB1745
:10062C00D31A364A13601CE0384B1B68012B0AD1D5
:10063C00344B1B682E4A82FB03129211DB17D31A20
:10064C002E4A13600DE0314B1B68022B09D1274B4E
:10065C001B68274A82FB03129211DB17D31A274A15
:10066C0013602A4B1B68591C274B83FB0132CB1799
:10067C00D21A13465B001344CA1A244B1A60244B3B
:10068C001B68012B15D14FF47A7000F063F8194BED
:10069C001B681A4A126811461846FFF707FF154BDC
:1006AC001B68013B134A1360144B1B68013B134A34
:1006BC001360184B1B68012B14D1FA2000F066F85C
:1006CC00154B1B68042293FBF2F102FB01F29B1AFF
:1006DC00114A1360104B1B685A1C0F490A601846CC
:1006EC00FFF766FE00BF80BDC00000203C0000206C
:1006FC00D34D62108C0000204000002090000020A0
:10070C0084000020440000205655555588000020D8
:10071C00A0000020A80000207000002080B483B04E
:10072C0000AF78607B68084A82FB03129210DB17DB
:10073C00D31A064A1360064B00221A6000BF0C370E
:10074C00BD4680BC704700BF67666666940000209B
:10075C009800002080B483B000AF78607B68084AB2
:10076C0082FB03129210DB17D31A064A1360064B56
:10077C0000221A6000BF0C37BD4680BC704700BF1A
:10078C00676666669C000020A000002080B483B0E1
:10079C0000AF78607B68084A82FB03129210DB176B
:1007AC00D31A064A1360064B00221A6000BF0C379E
:1007BC00BD4680BC704700BF67666666A40000201B
:1007CC00A800002080B483B000AF78607B68084A32
:1007DC0082FB03129210DB17D31A064A1360064BE6
:1007EC0000221A6000BF0C37BD4680BC704700BFAA
:1007FC0067666666AC000020B000002080B400AFD5
:10080C00214B1B68002B0BDD1F4B1B68013B1E4A49
:10081C0013601D4B1B68002B02D11C4B01221A606C
:10082C001B4B1B68002B0BDD194B1B68013B184A3B
:10083C001360174B1B68002B02D1164B01221A6058
:10084C00154B1B68002B0BDD134B1B68013B124A2D
:10085C001360114B1B68002B02D1104B01221A6044
:10086C000F4B1B68002B0BDD0D4B1B68013B0C4A1F
:10087C0013600B4B1B68002B02D10A4B01221A6030
:10088C0000BFBD4680BC704794000020980000203B
:10089C009C000020A0000020A4000020A800002044
:1008AC00AC000020B000002080B400AF034B01224C
:1008BC001A6000BFBD4680BC704700BFB40000206A
:1008CC0080B400AF034B01221A6000BFBD4680BC50
:1008DC00704700BFB800002080B400AF034B01226A
:1008EC001A6000BFBD4680BC704700BFBC00002032
:1008FC0080B400AF064B1B68012B04D1044B0022C3
:10090C001A60012300E000231846BD4680BC7047E6
:10091C00B400002080B400AF064B1B68012B04D13F
:10092C00044B00221A60012300E000231846BD4648
:10093C0080BC7047B800002080B400AF064B1B6829
:10094C00012B04D1044B00221A60012300E0002388
:10095C001846BD4680BC7047BC00002080B500AF77
:10096C001F4B1B681F4A13601F4B1B681C4A1360EC
:10097C004FF480511D4800F0DFFF03461A461A4B16
:10098C001A60174B1A68174B1B689A4225D1144BE7
:10099C001A68154B1B689A421FD1154B1A68124BDB
:1009AC001B689A420DD0104B1B68114A13600E4BFA
:1009BC001B68002B11D10F4BC8221A60FFF774FF74
:1009CC000BE00C4B1B68013B0A4A1360094B1B687C
:1009DC00002B02D1064B01221A6000BF80BD00BF64
:1009EC00040000200000002008000020000C014042
:1009FC000C0000201000002080B500AF1F4B1B68BE
:100A0C001F4A13601F4B1B681C4A13604FF40051A4
:100A1C001D4800F091FF03461A461A4B1A60174BFB
:100A2C001A68174B1B689A4225D1144B1A68154B40
:100A3C001B689A421FD1154B1A68124B1B689A42BD
:100A4C000DD0104B1B68114A13600E4B1B68002B0A
:100A5C0011D10F4BC8221A60FFF732FF0BE00C4B81
:100A6C001B68013B0A4A1360094B1B68002B02D11F
:100A7C00064B01221A6000BF80BD00BF1800002089
:100A8C00140000201C000020000C0140200000205D
:100A9C002400002080B500AF1F4B1B681F4A136059
:100AAC001F4B1B681C4A13604FF480411D4800F01B
:100ABC0043FF03461A461A4B1A60174B1A68174B1A
:100ACC001B689A4225D1144B1A68154B1B689A4225
:100ADC001FD1154B1A68124B1B689A420DD0104B44
:100AEC001B68114A13600E4B1B68002B11D10F4B66
:100AFC00C8221A60FFF7F0FE0BE00C4B1B68013BA1
:100B0C000A4A1360094B1B68002B02D1064B0122C9
:100B1C001A6000BF80BD00BF2C0000202800002000
:100B2C0030000020000C0140340000203800002070
:100B3C0080B500AFFFF712FFFFF75EFFFFF7AAFFCC
:100B4C0000BF80BD80B500AF6F4B1B68013B032B12
:100B5C006FD801A252F823F0750B00088B0B00081C
:100B6C00C70B0008030C0008FFF7EAFA664B0222D9
:100B7C001A60664B1B681846FFF7D0FD60E0FFF764
:100B8C0003FB634B1B68012B07D15F4B03221A60DD
:100B9C00604B1B681846FFF7C1FDFFF7A9FE034623
:100BAC00012B48D1584B0C221A605B4B0C221A605B
:100BBC0042F21070FFF7B2FD3DE0FFF7FBFA544B29
:100BCC001B68012B07D1504B04221A60534B1B6836
:100BDC001846FFF7A3FDFFF78BFE0346012B2CD124
:100BEC00494B0D221A604C4B0C221A6042F21070C9
:100BFC00FFF794FD21E0FFF7F3FA454B1B68012B3F
:100C0C0007D1414B02221A60404B1B681846FFF774
:100C1C0085FDFFF76DFE0346012B10D13A4B0E22DA
:100C2C001A603D4B0C221A6042F21070FFF776FDF1
:100C3C0005E000BF04E000BF02E000BF00E000BF21
:100C4C00354B1B68013B0B2B55D801A252F823F0F6
:100C5C008D0C0008A30C0008C10C0008DF0C000868
:100C6C00030D0008030D0008030D0008030D000818
:100C7C00030D0008030D0008030D0008FD0C00080F
:100C8C00FFF75EFA244B03221A60224B1B681846AE
:100C9C00FFF798FD36E0FFF7B9FA214B1B68012BE3
:100CAC002BD11D4B03221A601A4B1B681846FFF7F9
:100CBC0089FD22E0FFF7C0FA194B1B68012B1ED1EE
:100CCC00154B04221A60154B1B681846FFF77AFD6A
:100CDC0015E0FFF7C7FA124B1B68012B11D10E4B15
:100CEC0002221A60094B1B681846FFF76BFD08E0DF
:100CFC00FFF78CFA06E000BF04E000BF02E000BF83
:100D0C0000E000BF00BF80BDC00000203C00002000
:100D1C009800002040000020C40000204400002067
:100D2C00B000002080B500AF374B1B680E2B46D0AF
:100D3C000E2B5FDC0C2B02D00D2B25D05AE0FFF7CD
:100D4C0023FA00F0BBF9314B1B68012B0FD12E4B52
:100D5C0002221A602E4B1B681846FFF7DFFC2D4B46
:100D6C0003221A602C4B1B681846FFF72BFDFFF76C
:100D7C00BFFD0346012B3FD1234B0D221A6042F2DB
:100D8C001070FFF7CBFC37E0FFF714FA00F096F980
:100D9C001E4B1B68012B05D11B4B01221A601D4BEE
:100DAC0001221A60FFF7A4FD0346012B26D1164B36
:100DBC000E221A6042F21070FFF7B0FC1EE0FFF733
:100DCC000FFA00F07BF9114B1B68012B05D10E4B70
:100DDC0001221A600F4B01221A60FFF789FD0346AE
:100DEC00012B0DD1084B0C221A6042F21070FFF748
:100DFC0095FC05E000BF04E000BF02E000BF00E08E
:100E0C0000BF00BF80BD00BFC000002098000020C4
:100E1C003C000020C40000204000002080B483B0BF
:100E2C0000AF7860034A7B68136000BF0C37BD4687
:100E3C0080BC70473C00002080B483B000AF786069
:100E4C00034A7B68136000BF0C37BD4680BC7047FB
:100E5C004000002080B483B000AF7860034A7B6808
:100E6C00136000BF0C37BD4680BC704744000020A7
:100E7C0080B500AF00F076FA00F024F800F0AAF884
:100E8C0000F05CF80C4801F0BFF90C4B01221A6021
:100E9C000B4B01221A600A20FFF740FC0A20FFF7D7
:100EAC0059FC0A20FFF772FCFFF73CFBFFF74AFEE8
:100EBC00FFF738FFF8E700BFC8000020C000002093
:100ECC00C400002080B590B000AF07F118032822B1
:100EDC000021184601F050FD3B1D00221A605A609B
:100EEC009A60DA601A610223BB610123BB62102392
:100EFC00FB6200237B6307F11803184600F04CFDDE
:100F0C000346002B01D000F0D3F80F237B600023A5
:100F1C00BB600023FB6000233B6100237B613B1D16
:100F2C000021184600F0B8FF0346002B01D000F05A
:100F3C00BFF800BF4037BD4680BD000080B586B00D
:100F4C0000AF07F1080300221A605A609A60DA6059
:100F5C003B4600221A605A601D4B4FF080421A60CB
:100F6C001B4B41F63F725A60194B00229A60184B8A
:100F7C000922DA60164B00221A61154B00229A6185
:100F8C00134801F0F1F80346002B01D000F090F863
:100F9C004FF48053BB6007F1080319460C4801F06D
:100FAC0087FA0346002B01D000F082F800233B6047
:100FBC0000237B603B461946054801F04FFC034675
:100FCC00002B01D000F074F800BF1837BD4680BD6F
:100FDC00C800002080B586B000AF07F108030022DE
:100FEC001A605A609A60DA60284B9B69274A43F072
:100FFC0004039361254B9B6903F004037B607B68BE
:10100C00224B9B69214A43F0080393611F4B9B6958
:10101C0003F008033B603B68002240F2FF311C48A0
:10102C0000F0A1FC00227F211A4800F09CFC40F249
:10103C00FF33BB600123FB6000233B6102237B6118
:10104C0007F108031946124800F0FCFA7F23BB6035
:10105C000123FB6000233B6102237B6107F1080342
:10106C0019460C4800F0EEFA4FF4E043BB60002345
:10107C00FB6001233B6107F108031946054800F0AA
:10108C00E1FA00BF1837BD4680BD00BF001002401A
:10109C0000080140000C014080B582B000AF7860C0
:1010AC00FFF7ACFBFFF744FD00BF0837BD4680BD22
:1010BC0080B400AF72B600BFFEE7000080B500AF91
:1010CC00464B1B680E2B54D00E2B79DC0C2B02D00C
:1010DC000D2B27D074E0FFF71DFC0346012B14D118
:1010EC003F4B1B6803F57A723E4B83FB021359137B
:1010FC00D317CB1A3C4901FB03F3D31A384A1360BC
:10110C00374B1B681846FFF789FE354B1B68374A6F
:10111C0082FB03129211DB17D31A02211846FFF738
:10112C00C5F94EE0FFF7F6FB0346012B14D1304B0B
:10113C001B6803F57A722B4B83FB02135913D317DD
:10114C00CB1A294901FB03F3D31A294A1360284B04
:10115C001B681846FFF770FE254B1B68234A82FB61
:10116C0003129211DB17D31A03211846FFF79EF9CD
:10117C0027E0FFF7CFFB0346012B14D11D4B1B6857
:10118C0003F57A72174B83FB02135913D317CB1A3F
:10119C00154901FB03F3D31A164A1360154B1B6850
:1011AC001846FFF757FE134B1B68104A82FB0312BD
:1011BC009211DB17D31A04211846FFF777F900E0D8
:1011CC0000BFFFF7B9FB0346012B05D1034B0122EE
:1011DC001A60094B01221A6000BF80BDC0000020BC
:1011EC003C00002089B5F814A0860100D34D621094
:1011FC004000002044000020C400002080B485B0D2
:10120C0000AF154B9B69144A43F001039361124BD9
:10121C009B6903F00103BB60BB680F4BDB690E4A93
:10122C0043F08053D3610C4BDB6903F080537B603C
:10123C007B680A4B5B68FB60FB6823F0E063FB6038
:10124C00FB6843F08063FB60044AFB68536000BF9B
:10125C001437BD4680BC70470010024000000140AE
:10126C0080B584B000AF78607B681B68B3F1804FA9
:10127C0013D10C4BDB690B4A43F00103D361094BCF
:10128C00DB6903F00103FB60FB68002200211C20DA
:10129C0000F0A1F91C2000F0BAF900BF1037BD46D0
:1012AC0080BD00BF0010024080B400AFFEE780B4E8
:1012BC0000AFFEE780B400AFFEE780B400AFFEE7FE
:1012CC0080B400AFFEE780B400AF00BFBD4680BC69
:1012DC00704780B400AF00BFBD4680BC704780B47F
:1012EC0000AF00BFBD4680BC704780B500AF00F0BA
:1012FC007FF800BF80BD000080B500AF024800F051
:10130C00CFFF00BF80BD00BFC800002080B400AF7D
:10131C0000BFBD4680BC70470C480D490D4A0023E8
:10132C0002E0D458C4500433C4188C42F9D30A4A8E
:10133C000A4C002301E013600432A242FBD3FFF7F6
:10134C00E5FF01F0F5FAFFF793FD70470000002070
:10135C0054000020D429000854000020140100205F
:10136C00FEE7000080B500AF084B1B68074A43F04E
:10137C0010031360032000F023F90F2000F008F88D
:10138C00FFF73CFF0023184680BD00BF0020024041
:10139C0080B582B000AF7860124B1A68124B1B7884
:1013AC0019464FF47A73B3FBF1F3B2FBF3F318461F
:1013BC0000F03BF90346002B01D001230EE07B68C3
:1013CC000F2B0AD8002279684FF0FF3000F003F998
:1013DC00064A7B681360002300E001231846083797
:1013EC00BD4680BD48000020500000204C0000206D
:1013FC0080B400AF054B1B781A46054B1B68134491
:10140C00034A136000BFBD4680BC704750000020EB
:10141C001001002080B400AF024B1B681846BD467B
:10142C0080BC70471001002080B485B000AF78609C
:10143C007B6803F00703FB600C4BDB68BB60BA688E
:10144C004FF6FF031340BB60FB681A02BB681343E3
:10145C0043F0BF6343F40033BB60044ABB68D36002
:10146C0000BF1437BD4680BC704700BF00ED00E0E4
:10147C0080B400AF044BDB681B0A03F0070318466B
:10148C00BD4680BC704700BF00ED00E080B483B067
:10149C0000AF0346FB7197F90730002B0BDBFB7990
:1014AC0003F01F02064997F907305B09012000FA87
:1014BC0002F241F8232000BF0C37BD4680BC7047B8
:1014CC0000E100E080B483B000AF03463960FB71EB
:1014DC0097F90730002B0ADB3B68DAB20C4997F915
:1014EC0007301201D2B20B4483F800230AE03B68A8
:1014FC00DAB20849FB7903F00F03043B1201D2B2B4
:10150C000B441A7600BF0C37BD4680BC704700BF39
:10151C0000E100E000ED00E080B489B000AFF860BD
:10152C00B9607A60FB6803F00703FB61FB69C3F1E8
:10153C000703042B28BF0423BB61FB690433062B70
:10154C0002D9FB69033B00E000237B614FF0FF32C3
:10155C00BB6902FA03F3DA43BB681A407B699A4011
:10156C004FF0FF317B6901FA03F3D9437B680B40E1
:10157C00134318462437BD4680BC704780B582B0F3
:10158C0000AF78607B68013BB3F1807F01D301230E
:10159C000FE00A4A7B68013B53600F214FF0FF308C
:1015AC00FFF790FF054B00229A60044B07221A604C
:1015BC00002318460837BD4680BD00BF10E000E090
:1015CC0080B582B000AF78607868FFF72DFF00BF60
:1015DC000837BD4680BD80B586B000AF0346B96004
:1015EC007A60FB7300237B61FFF742FF78617A68B6
:1015FC00B9687869FFF790FF024697F90F301146EA
:10160C001846FFF75FFF00BF1837BD4680BD80B599
:10161C0082B000AF0346FB7197F907301846FFF70D
:10162C0035FF00BF0837BD4680BD80B582B000AF26
:10163C0078607868FFF7A2FF034618460837BD4666
:10164C0080BD000080B48BB000AF7860396000239F
:10165C007B6200233B6248E101227B6A02FA03F3BE
:10166C00FB613B681B68FA691340BB61BA69FB6993
:10167C009A4240F037813B685B68A34A93425ED044
:10168C00A14A934275D8A14A934258D09F4A93429B
:10169C006FD89F4A934252D09D4A934269D89D4A33
:1016AC0093424CD09B4A934263D89B4A934246D078
:1016BC00994A93425DD8122B2AD8122B59D801A2E1
:1016CC0052F823F04B1700082517000837170008AD
:1016DC00791700087F1700087F1700087F1700088C
:1016EC007F1700087F1700087F1700087F17000876
:1016FC007F1700087F1700087F1700087F17000866
:10170C007F1700087F1700082D17000841170008E5
:10171C00824A934213D02CE03B68DB683B6229E0A1
:10172C003B68DB6804333B6224E03B68DB680833CE
:10173C003B621FE03B68DB680C333B621AE03B68A2
:10174C009B68002B02D104233B6213E03B689B682F
:10175C00012B05D108233B627B68FA691A6109E009
:10176C0008233B627B68FA695A6103E000233B6201
:10177C0000E000BFBB69FF2B01D87B6801E07B68F0
:10178C0004337B61BB69FF2B02D87B6A9B0002E0B0
:10179C007B6A083B9B003B617B691A680F213B69A4
:1017AC0001FA03F3DB431A40396A3B6901FA03F38C
:1017BC001A437B691A603B685B6803F08053002B0B
:1017CC0000F09080564B9B69554A43F0010393619E
:1017DC00534B9B6903F00103BB60BB68514A7B6AA6
:1017EC009B08023352F82330FB607B6A03F003033F
:1017FC009B000F2202FA03F3DB43FA681340FB60F1
:10180C007B68494A93420DD07B68484A934207D083
:10181C007B68474A934201D1022304E0032302E090
:10182C00012300E000237A6A02F003029200934045
:10183C00FA681343FB603B497B6A9B080233FA68E6
:10184C0041F823203B685B6803F48033002B06D0FF
:10185C00384B1A683749BB6913430B6006E0354BAC
:10186C001A68BB69DB43334913400B603B685B6808
:10187C0003F40033002B06D02E4B5A682D49BB695C
:10188C0013434B6006E02B4B5A68BB69DB43294979
:10189C0013404B603B685B6803F48013002B06D04D
:1018AC00244B9A682349BB6913438B6006E0214B98
:1018BC009A68BB69DB431F4913408B603B685B68CC
:1018CC0003F40013002B06D01A4BDA681949BB69D4
:1018DC001343CB6006E0174BDA68BB69DB43154951
:1018EC001340CB607B6A01337B623B681A687B6A6E
:1018FC0022FA03F3002B7FF4AFAE00BF00BF2C37EE
:10190C00BD4680BC704700BF000032100000311093
:10191C000000221000002110000012100000111015
:10192C00001002400000014000080140000C014082
:10193C00001001400004014080B485B000AF786015
:10194C000B467B807B689A687B881340002B02D007
:10195C000123FB7301E00023FB73FB7B1846143758
:10196C00BD4680BC704780B483B000AF78600B4636
:10197C007B8013467B707B78002B03D07A887B6846
:10198C001A6103E07B881A047B681A6100BF0C376C
:10199C00BD4680BC7047000080B586B000AF786053
:1019AC007B68002B01D101236CE27B681B6803F080
:1019BC000103002B00F08780924B5B6803F00C0353
:1019CC00042B0CD08F4B5B6803F00C03082B12D14B
:1019DC008C4B5B6803F48033B3F5803F0BD1894BA0
:1019EC001B6803F40033002B6CD07B685B68002B06
:1019FC0068D1012346E27B685B68B3F5803F06D172
:101A0C00804B1B687F4A43F4803313602EE07B6865
:101A1C005B68002B0CD17B4B1B687A4A23F4803318
:101A2C001360784B1B68774A23F4802313601DE006
:101A3C007B685B68B3F5A02F0CD1724B1B68714AA5
:101A4C0043F4802313606F4B1B686E4A43F480335E
:101A5C0013600BE06B4B1B686A4A23F480331360F2
:101A6C00684B1B68674A23F4802313607B685B68B0
:101A7C00002B13D0FFF7CEFC386108E0FFF7CAFC4F
:101A8C0002463B69D31A642B01D90323FAE15D4B5F
:101A9C001B6803F40033002BF0D014E0FFF7BAFC02
:101AAC00386108E0FFF7B6FC02463B69D31A642B99
:101ABC0001D90323E6E1534B1B6803F40033002BDD
:101ACC00F0D100E000BF7B681B6803F00203002B21
:101ADC0063D04C4B5B6803F00C03002B0BD0494BD1
:101AEC005B6803F00C03082B1CD1464B5B6803F4BA
:101AFC008033002B16D1434B1B6803F00203002BE1
:101B0C0005D07B681B69012B01D00123BAE13D4B49
:101B1C001B6823F0F8027B685B69DB0039491343CF
:101B2C000B603AE07B681B69002B20D0364B0122FE
:101B3C001A60FFF76FFC386108E0FFF76BFC024698
:101B4C003B69D31A022B01D903239BE12D4B1B6854
:101B5C0003F00203002BF0D02A4B1B6823F0F80291
:101B6C007B685B69DB00274913430B6015E0264B50
:101B7C0000221A60FFF74EFC386108E0FFF74AFCC0
:101B8C0002463B69D31A022B01D903237AE11D4B80
:101B9C001B6803F00203002BF0D17B681B6803F079
:101BAC000803002B3AD07B689B69002B19D0174B8C
:101BBC0001221A60FFF72EFC386108E0FFF72AFCBF
:101BCC0002463B69D31A022B01D903235AE10D4B70
:101BDC005B6A03F00203002BF0D0012000F0A6FAA0
:101BEC001CE00A4B00221A60FFF714FC38610FE06E
:101BFC00FFF710FC02463B69D31A022B08D90323CA
:101C0C0040E100BF0010024000004242800442420A
:101C1C009E4B5B6A03F00203002BE9D17B681B68C7
:101C2C0003F00403002B00F0A6800023FB75974BF8
:101C3C00DB6903F08053002B0DD1944BDB69934A85
:101C4C0043F08053D361914BDB6903F08053BB604D
:101C5C00BB680123FB758E4B1B6803F48073002B50
:101C6C0018D18B4B1B688A4A43F480731360FFF7BF
:101C7C00D1FB386108E0FFF7CDFB02463B69D31A74
:101C8C00642B01D90323FDE0814B1B6803F48073A3
:101C9C00002BF0D07B68DB68012B06D17B4B1B6AD9
:101CAC007A4A43F0010313622DE07B68DB68002B5A
:101CBC000CD1764B1B6A754A23F001031362734BEC
:101CCC001B6A724A23F0040313621CE07B68DB6816
:101CDC00052B0CD16D4B1B6A6C4A43F00403136249
:101CEC006A4B1B6A694A43F0010313620BE0674BB2
:101CFC001B6A664A23F001031362644B1B6A634A36
:101D0C0023F0040313627B68DB68002B15D0FFF70C
:101D1C0081FB38610AE0FFF77DFB02463B69D31A71
:101D2C0041F28832934201D90323ABE0574B1B6A33
:101D3C0003F00203002BEED014E0FFF76BFB3861CD
:101D4C000AE0FFF767FB02463B69D31A41F288327F
:101D5C00934201D9032395E04C4B1B6A03F0020319
:101D6C00002BEED1FB7D012B05D1484BDB69474A9B
:101D7C0023F08053D3617B68DB69002B00F08180FA
:101D8C00424B5B6803F00C03082B61D07B68DB696A
:101D9C00022B46D13F4B00221A60FFF73BFB386108
:101DAC0008E0FFF737FB02463B69D31A022B01D937
:101DBC00032367E0354B1B6803F00073002BF0D155
:101DCC007B681B6AB3F5803F08D1304B5B6823F40A
:101DDC0000327B689B682D4913434B602B4B5B682F
:101DEC0023F474127B68196A7B685B6A0B4327497E
:101DFC0013434B60274B01221A60FFF70BFB386132
:101E0C0008E0FFF707FB02463B69D31A022B01D906
:101E1C00032337E01D4B1B6803F00073002BF0D03D
:101E2C002FE01C4B00221A60FFF7F4FA386108E02F
:101E3C00FFF7F0FA02463B69D31A022B01D90323B0
:101E4C0020E0124B1B6803F00073002BF0D118E05C
:101E5C007B68DB69012B01D1012313E00B4B5B6821
:101E6C00FB60FB6803F480327B681B6A9A4206D1E4
:101E7C00FB6803F470127B685B6A9A4201D0012301
:101E8C0000E0002318461837BD4680BD0010024004
:101E9C00007000406000424280B584B000AF7860B2
:101EAC0039607B68002B01D10123D0E06A4B1B68A1
:101EBC0003F007033A689A4210D9674B1B6823F06A
:101ECC00070265493B6813430B60634B1B6803F0C7
:101EDC0007033A689A4201D00123B8E07B681B687B
:101EEC0003F00203002B20D07B681B6803F0040373
:101EFC00002B05D0594B5B68584A43F4E0635360A0
:101F0C007B681B6803F00803002B05D0534B5B6800
:101F1C00524A43F460535360504B5B6823F0F00219
:101F2C007B689B684D4913434B607B681B6803F0CF
:101F3C000103002B40D07B685B68012B07D1474B1A
:101F4C001B6803F40033002B15D101237FE07B6861
:101F5C005B68022B07D1414B1B6803F00073002B0D
:101F6C0009D1012373E03D4B1B6803F00203002BE6
:101F7C0001D101236BE0394B5B6823F003027B68D2
:101F8C005B68364913434B60FFF744FAF8600AE08C
:101F9C00FFF740FA0246FB68D31A41F288329342AB
:101FAC0001D9032353E02D4B5B6803F00C027B68D3
:101FBC005B689B009A42EBD1274B1B6803F007032D
:101FCC003A689A4210D2244B1B6823F0070222492C
:101FDC003B6813430B60204B1B6803F007033A6804
:101FEC009A4201D0012332E07B681B6803F00403A2
:101FFC00002B08D0194B5B6823F4E0627B68DB682C
:10200C00164913434B607B681B6803F00803002BD5
:10201C0009D0124B5B6823F460527B681B69DB00B0
:10202C000E4913434B6000F021F802460B4B5B68E2
:10203C001B0903F00F030A49CB5C22FA03F3094A8C
:10204C001360094B1B681846FFF7A2F900231846CA
:10205C001037BD4680BD00BF00200240001002407A
:10206C00BC290008480000204C00002090B48AB025
:10207C0000AF2A4B3C1D0FCB84E80F0040F201232C
:10208C003B800023FB610023BB6100237B620023A8
:10209C007B6100233B62224B5B68FB61FB6903F0B5
:1020AC000C03042B02D0082B03D02DE01D4B3B62FC
:1020BC002DE0FB699B0C03F00F0307F1280213447E
:1020CC0013F8243C7B61FB6903F48033002B13D0A1
:1020DC00134B5B685B0C03F0010307F128021344FC
:1020EC0013F8283CBB617B690E4A02FB03F2BB6907
:1020FC00B2FBF3F37B6204E07B690B4A02FB03F354
:10210C007B627B6A3B6202E0064B3B6200BF3B6A30
:10211C0018462837BD4690BC704700BFAC29000854
:10212C000010024000127A0000093D0080B485B016
:10213C0000AF78600A4B1B680A4AA2FB03235B0AB8
:10214C007A6802FB03F3FB6000BFFB685A1EFA605F
:10215C00002BF9D100BF00BF1437BD4680BC7047BF
:10216C0048000020D34D621080B582B000AF78607B
:10217C007B68002B01D1012341E07B6893F83D3053
:10218C00DBB2002B06D17B68002283F83C207868F8
:10219C00FFF766F87B68022283F83D207B681A689B
:1021AC007B6804331946104600F06AFA7B680122FA
:1021BC0083F846207B68012283F83E207B6801224D
:1021CC0083F83F207B68012283F840207B68012242
:1021DC0083F841207B68012283F842207B6801222E
:1021EC0083F843207B68012283F844207B6801221A
:1021FC0083F845207B68012283F83D200023184694
:10220C000837BD4680BD000080B485B000AF786053
:10221C007B6893F83D30DBB2012B01D0012335E014
:10222C007B68022283F83D207B681B68DA687B6838
:10223C001B6842F00102DA607B681B68164A934205
:10224C0009D07B681B68B3F1804F04D07B681B6896
:10225C00124A934211D17B681B689B6803F00703F9
:10226C00FB60FB68062B10D07B681B681A687B68C8
:10227C001B6842F001021A6007E07B681B681A6851
:10228C007B681B6842F001021A6000231846143761
:10229C00BD4680BC704700BF002C014000040040CC
:1022AC0080B582B000AF78607B681B681B6903F057
:1022BC000203022B22D17B681B68DB6803F002034C
:1022CC00022B1BD17B681B686FF002021A617B68C2
:1022DC0001221A777B681B689B6903F00303002BB0
:1022EC0003D0786800F0B1F905E0786800F0A4F943
:1022FC00786800F0B3F97B6800221A777B681B685A
:10230C001B6903F00403042B22D17B681B68DB6878
:10231C0003F00403042B1BD17B681B686FF00402D1
:10232C001A617B6802221A777B681B689B6903F42D
:10233C004073002B03D0786800F087F905E07868CB
:10234C0000F07AF9786800F089F97B6800221A7736
:10235C007B681B681B6903F00803082B22D17B6880
:10236C001B68DB6803F00803082B1BD17B681B6818
:10237C006FF008021A617B6804221A777B681B686D
:10238C00DB6903F00303002B03D0786800F05DF9E0
:10239C0005E0786800F050F9786800F05FF97B6828
:1023AC0000221A777B681B681B6903F01003102B43
:1023BC0022D17B681B68DB6803F01003102B1BD148
:1023CC007B681B686FF010021A617B6808221A7711
:1023DC007B681B68DB6903F44073002B03D07868BF
:1023EC0000F033F905E0786800F026F9786800F021
:1023FC0035F97B6800221A777B681B681B6903F030
:10240C000103012B0ED17B681B68DB6803F0010311
:10241C00012B07D17B681B686FF001021A61786889
:10242C00FEF73AFE7B681B681B6903F08003802B68
:10243C000ED17B681B68DB6803F08003802B07D10F
:10244C007B681B686FF080021A61786800F067FA8D
:10245C007B681B681B6903F04003402B0ED17B6823
:10246C001B68DB6803F04003402B07D17B681B68BB
:10247C006FF040021A61786800F0F9F87B681B680D
:10248C001B6903F02003202B0ED17B681B68DB68D3
:10249C0003F02003202B07D17B681B686FF0200210
:1024AC001A61786800F032FA00BF0837BD4680BD6B
:1024BC0080B584B000AF786039607B6893F83C30AD
:1024CC00012B01D10223B3E07B68012283F83C206D
:1024DC007B68022283F83D207B681B689B68FB604D
:1024EC00FB6823F07703FB60FB6823F47F43FB60FE
:1024FC007B681B68FA689A603B681B68B3F5005FE1
:10250C003ED0B3F5005F00F28780B3F5805F00F03A
:10251C008580B3F5805F7FD8702B1AD0702B7BD859
:10252C00602B50D0602B77D8502B3CD0502B73D8CD
:10253C00402B58D0402B6FD8302B64D0302B6BD81D
:10254C00202B60D0202B67D8002B5CD0102B5AD0BE
:10255C0062E07B6818683B6899683B685A683B681E
:10256C00DB6800F05CF97B681B689B68FB60FB68B0
:10257C0043F07703FB607B681B68FA689A604EE057
:10258C007B6818683B6899683B685A683B68DB68ED
:10259C0000F045F97B681B689A687B681B6842F4FD
:1025AC0080429A603BE07B6818683B6859683B68DE
:1025BC00DB681A4600F0BCF87B681B685021184693
:1025CC0000F013F92BE07B6818683B6859683B688E
:1025DC00DB681A4600F0DAF87B681B686021184645
:1025EC0000F003F91BE07B6818683B6859683B688E
:1025FC00DB681A4600F09CF87B681B684021184683
:10260C0000F0F3F80BE07B681A683B681B6819460E
:10261C00104600F0EAF802E000BF00E000BF7B6863
:10262C00012283F83D207B68002283F83C200023A4
:10263C0018461037BD4680BD80B483B000AF7860BB
:10264C0000BF0C37BD4680BC704780B483B000AF70
:10265C00786000BF0C37BD4680BC704780B483B037
:10266C0000AF786000BF0C37BD4680BC704780B4AB
:10267C0083B000AF786000BF0C37BD4680BC70479C
:10268C0080B485B000AF786039607B681B68FB60F4
:10269C007B68254A934207D07B68B3F1804F03D007
:1026AC007B68224A934208D1FB6823F07003FB60DD
:1026BC003B685B68FA681343FB607B681A4A934279
:1026CC0007D07B68B3F1804F03D07B68174A9342E5
:1026DC0008D1FB6823F44073FB603B68DB68FA6845
:1026EC001343FB60FB6823F080023B685B69134378
:1026FC00FB607B68FA681A603B689A687B68DA62F0
:10270C003B681A687B689A627B68074A934203D1DC
:10271C003B681A697B681A637B6801225A6100BFA7
:10272C001437BD4680BC7047002C014000040040AB
:10273C0080B487B000AFF860B9607A60FB681B6A40
:10274C007B61FB681B6A23F00102FB681A62FB6861
:10275C009B693B613B6923F0F0033B617B681B0188
:10276C003A6913433B617B6923F00A037B617A6905
:10277C00BB6813437B61FB683A699A61FB687A69B1
:10278C001A6200BF1C37BD4680BC704780B487B04E
:10279C0000AFF860B9607A60FB681B6A23F0100226
:1027AC00FB681A62FB689B697B61FB681B6A3B6177
:1027BC007B6923F470437B617B681B037A69134349
:1027CC007B613B6923F0A0033B61BB681B013A6949
:1027DC0013433B61FB687A699A61FB683A691A6238
:1027EC0000BF1C37BD4680BC704780B485B000AFBD
:1027FC00786039607B689B68FB60FB6823F0700332
:10280C00FB603A68FB68134343F00703FB607B688B
:10281C00FA689A6000BF1437BD4680BC704780B41C
:10282C0087B000AFF860B9607A603B60FB689B686A
:10283C007B617B6923F47F437B613B681A027B6875
:10284C001A43BB6813437A6913437B61FB687A694B
:10285C009A6000BF1C37BD4680BC704780B485B001
:10286C0000AF786039607B6893F83C30012B01D164
:10287C00022341E07B68012283F83C207B68022222
:10288C0083F83D207B681B685B68FB607B681B687A
:10289C009B68BB60FB6823F07003FB603B681B68A4
:1028AC00FA681343FB607B681B68FA685A607B68A4
:1028BC001B68144A934209D07B681B68B3F1804FA4
:1028CC0004D07B681B68104A93420CD1BB6823F080
:1028DC008003BB603B685B68BA681343BB607B6872
:1028EC001B68BA689A607B68012283F83D207B687C
:1028FC00002283F83C20002318461437BD4680BCC8
:10290C00704700BF002C01400004004080B483B02D
:10291C0000AF786000BF0C37BD4680BC704780B4F8
:10292C0083B000AF786000BF0C37BD4680BC7047E9
:10293C0070B500260C4D0D4C641BA410A64209D199
:10294C0000F022F800260A4D0A4C641BA410A64283
:10295C0005D170BD55F8043B98470136EEE755F8A4
:10296C00043B98470136F2E7CC290008CC29000833
:10297C00CC290008D029000803460244934200D118
:10298C00704703F8011BF9E7F8B500BFF8BC08BCA9
:10299C009E467047F8B500BFF8BC08BC9E46704711
:1029AC0002030405060708090A0B0C0D0E0F101084
:1029BC0000000000000000000102030406070809E3
:0429CC0031010008CD
:0429D0000D010008ED
:1029D40001000000010000000100000001000000EF
:1029E400C800000001000000010000000100000018
:1029F40001000000C8000000010000000100000008
:102A04000100000001000000C8000000881300005D
:102A1400B80B0000D00700000024F40010000000F0
:042A240001000000AD
:0400000508001325B7
:00000001FF
